:100000000C942A000C9447000C9447000C94470071
:100010000C9447000C9447000C9447000C94470044
:100020000C949C000C9447000C9447000C944700DF
:100030000C9447000C9447000C9447000C94470024
:100040000C9447000C9447000C9447000C94470014
:100050000C94470011241FBECFE5D4E0DEBFCDBF16
:1000600010E0A0E6B0E0E0EFF2E002C005900D92F3
:10007000A636B107D9F710E0A6E6B0E001C01D92A0
:10008000A836B107E1F70E94B9000C9476010C94F0
:1000900000008BBBC098C198C29A8FE295E7019788
:1000A000F1F700C00000C2988FE295E70197F1F7E1
:1000B00000C0000008958BBBC09AC198C29A8FE21D
:1000C00095E70197F1F700C00000C2988FE295E72D
:1000D0000197F1F700C00000089588E30E944900ED
:1000E0008EE00E94490080E80E94490086E00E945C
:1000F000490081E00E94490008950F931F93CF9318
:10010000DF93082F192FC0E0D0E00CC00E945B00E5
:100110002196C031D10531F480EC0E94490086E07F
:100120000E944900F80181918F01882379F7DF91BE
:10013000CF911F910F9108951F920F920FB60F92BA
:1001400011248F939F9384E088BF8BE791EE9DBD30
:100150008CBD809166009091670001969093670036
:10016000809366009F918F910F900FBE0F901F900C
:100170001895CF93DF93CDB7DEB72C970FB6F894D1
:10018000DEBF0FBECDBF8FEF8ABB87BB8BE791EE83
:100190009DBD8CBD789489B7846089BF85E08EBD94
:1001A00000E610E080916600909167008C33910525
:1001B00044F1109267001092660080916200909165
:1001C0006300019690936300809362008C339105E5
:1001D0006CF08091640090916500019690936500A9
:1001E000809364001092630010926200809164001A
:1001F000909165008931910524F01092650010926C
:1002000064000E946D008091640090916500BE01C1
:100210006F5F7F4F4AE050E00E9431010E947D00F5
:10022000C8010E947D008091620090916300BE0130
:100230006B5F7F4F4AE050E00E9431010E947D00D9
:10024000C8010E947D008091660090916700BE0108
:10025000675F7F4F4AE050E00E9431010E947D00BD
:10026000A1CFFB019F01E8944230C4F04532B4F4C1
:100270004A3029F497FB1EF4909581959F4F642F87
:1002800077270E946201805D8A330CF0895D81933B
:10029000CB010097A1F716F45DE251931082C901DA
:1002A0000C945201DC01FC01672F71917723E1F777
:1002B000329704C07C916D9370836291AE17BF0733
:1002C000C8F30895AA1BBB1B51E107C0AA1FBB1F9F
:1002D000A617B70710F0A61BB70B881F991F5A95D2
:1002E000A9F780959095BC01CD010895F894FFCFB2
:0602F0003A0028000100A5
:00000001FF
